{
  "contractName": "Splitter",
  "abi": [
    {
      "constant": true,
      "inputs": [
        {
          "name": "",
          "type": "address"
        }
      ],
      "name": "addresses",
      "outputs": [
        {
          "name": "",
          "type": "uint256"
        }
      ],
      "payable": false,
      "stateMutability": "view",
      "type": "function"
    },
    {
      "constant": false,
      "inputs": [],
      "name": "owned",
      "outputs": [],
      "payable": false,
      "stateMutability": "nonpayable",
      "type": "function"
    },
    {
      "constant": false,
      "inputs": [
        {
          "name": "receiverOne",
          "type": "address"
        },
        {
          "name": "receiverTwo",
          "type": "address"
        }
      ],
      "name": "split",
      "outputs": [
        {
          "name": "isSuccessfull",
          "type": "bool"
        }
      ],
      "payable": true,
      "stateMutability": "payable",
      "type": "function"
    },
    {
      "constant": false,
      "inputs": [],
      "name": "withdrawFunds",
      "outputs": [],
      "payable": false,
      "stateMutability": "nonpayable",
      "type": "function"
    },
    {
      "constant": false,
      "inputs": [],
      "name": "kill",
      "outputs": [],
      "payable": false,
      "stateMutability": "nonpayable",
      "type": "function"
    }
  ],
  "bytecode": "0x6060604052341561000f57600080fd5b6104e48061001e6000396000f30060606040526004361061006d576000357c0100000000000000000000000000000000000000000000000000000000900463ffffffff1680630f2c93291461007257806324600fc3146100d757806341c0e1b5146100ec57806382d3895414610101578063df32754b1461014e575b600080fd5b6100bd600480803573ffffffffffffffffffffffffffffffffffffffff1690602001909190803573ffffffffffffffffffffffffffffffffffffffff16906020019091905050610163565b604051808215151515815260200191505060405180910390f35b34156100e257600080fd5b6100ea6102b4565b005b34156100f757600080fd5b6100ff6103cd565b005b341561010c57600080fd5b610138600480803573ffffffffffffffffffffffffffffffffffffffff1690602001909190505061045e565b6040518082815260200191505060405180910390f35b341561015957600080fd5b610161610476565b005b6000806000803411151561017657600080fd5b60023481151561018257fe5b069150600282340381151561019357fe5b049050600082111561020e5781600160008060009054906101000a900473ffffffffffffffffffffffffffffffffffffffff1673ffffffffffffffffffffffffffffffffffffffff1673ffffffffffffffffffffffffffffffffffffffff168152602001908152602001600020600082825401925050819055505b80600160008773ffffffffffffffffffffffffffffffffffffffff1673ffffffffffffffffffffffffffffffffffffffff1681526020019081526020016000206000828254019250508190555080600160008673ffffffffffffffffffffffffffffffffffffffff1673ffffffffffffffffffffffffffffffffffffffff1681526020019081526020016000206000828254019250508190555060019250505092915050565b600080600160003373ffffffffffffffffffffffffffffffffffffffff1673ffffffffffffffffffffffffffffffffffffffff1681526020019081526020016000205411151561030357600080fd5b600160003373ffffffffffffffffffffffffffffffffffffffff1673ffffffffffffffffffffffffffffffffffffffff1681526020019081526020016000205490506000600160003373ffffffffffffffffffffffffffffffffffffffff1673ffffffffffffffffffffffffffffffffffffffff168152602001908152602001600020819055503373ffffffffffffffffffffffffffffffffffffffff166108fc829081150290604051600060405180830381858888f1935050505015156103ca57600080fd5b50565b6000809054906101000a900473ffffffffffffffffffffffffffffffffffffffff1673ffffffffffffffffffffffffffffffffffffffff163373ffffffffffffffffffffffffffffffffffffffff16141561045c576000809054906101000a900473ffffffffffffffffffffffffffffffffffffffff1673ffffffffffffffffffffffffffffffffffffffff16ff5b565b60016020528060005260406000206000915090505481565b336000806101000a81548173ffffffffffffffffffffffffffffffffffffffff021916908373ffffffffffffffffffffffffffffffffffffffff1602179055505600a165627a7a723058208a8ca6ef8f59fc70cf6d6e24d1cdc5f6155e6de32ab4266f400040466d2397260029",
  "source": "//This is Splitter Contract to split the amount in to half sent from Alice to Bob & Carol\npragma solidity ^0.4.19;\ncontract Splitter{\n\n\tfunction owned() public { owner = msg.sender; }\n  \t  address owner;\n\n\n\tmapping (address => uint) public addresses;\n\n\tfunction split(address receiverOne, address receiverTwo)  public  payable returns(bool isSuccessfull){\n\t      \n\t\trequire(msg.value>0);\n\t\t\n\t\tuint remAmt = msg.value % 2;\n\t\tuint splitAmt = (msg.value - remAmt) / 2;\n\n\t\tif (remAmt > 0){\n\t\t\taddresses[owner] += remAmt;}\n\n\t\taddresses[receiverOne] += splitAmt;\n\t\t\n\t\taddresses[receiverTwo] += splitAmt;\n\n\t\treturn true;\n\t\n\t}\n\t\n//Funds withdraw\n\tfunction withdrawFunds() public {\n\n\t    require(addresses[msg.sender]>0);\n\t    uint amount = addresses[msg.sender];\n\n\t \n\t    addresses[msg.sender] = 0;\n\t  \n\t    msg.sender.transfer(amount);\n\n\t  }\n\n\n\n\n\n\t//Self destruct function to be called only by owner\n  \tfunction kill() public{ \n\t\tif (msg.sender == owner) selfdestruct(owner);\n\t\t }\n\t\n}\n\n",
  "sourcePath": "/home/srinivas/DAPPS/splitter/contracts/Splitter.sol",
  "compiler": {
    "name": "solc",
    "version": "0.4.19+commit.c4cbbb05.Emscripten.clang"
  },
  "schemaVersion": "2.0.0",
  "updatedAt": "2018-07-07T06:12:03.151Z"
}